:020000040000FA
:100000000C9462000C948A000C948A000C948A0070
:100010000C948A000C948A000C948A000C948A0038
:100020000C948A000C948A000C948A000C948A0028
:100030000C948A000C948A000C948A000C948A0018
:100040000C9482070C948A000C94F2070C94CC0751
:100050000C948A000C948A000C948A000C948A00F8
:100060000C9424080C948A00000000002300260051
:10007000290000000000240027002A0000000000E2
:10008000250028002B0004040404040404040202D4
:100090000202020203030303030301020408102007
:1000A0004080010204081020010204081020000012
:1000B0000008000201000003040700000000000027
:1000C0000000430911241FBECFEFD8E0DEBFCDBF33
:1000D00012E0A0E0B1E0E8ECF5E202C005900D927C
:1000E000A033B107D9F724E0A0E3B2E001C01D922C
:1000F000A632B207E1F710E0C2E6D0E004C02197D3
:10010000FE010E94FD0FC136D107C9F70E948C097C
:100110000C94E2120C9400008230910538F0880FA4
:10012000991F880F991F05970197F1F7089583305C
:1001300081F028F4813099F08230A9F00895873059
:10014000A9F08830C9F08430B1F4809180008F7DAF
:1001500003C0809180008F7780938000089584B5DC
:100160008F7784BD089584B58F7DFBCF8091B000DB
:100170008F778093B00008958091B0008F7DF9CF84
:100180001F93CF93DF93282F30E0F901E255FF4F03
:100190008491F901E656FF4FD491F901EA57FF4FD8
:1001A000C491CC23A9F0162F81110E949700EC2F47
:1001B000F0E0EE0FFF1FE458FF4FA591B4918FB709
:1001C000F894EC91111108C0D095DE23DC938FBF19
:1001D000DF91CF911F910895DE2BF8CFCF93DF935E
:1001E00090E0FC01E656FF4F24918A579F4FFC0197
:1001F00084918823D1F090E0880F991FFC01EE587C
:10020000FF4FA591B491FC01E458FF4FC591D491E3
:1002100061110EC09FB7F8948C91E22FE0958E2368
:100220008C932881E223E8839FBFDF91CF910895CB
:100230008FB7F894EC91E22BEC938FBFF6CF3FB7DA
:10024000F89480916C0390916D03A0916E03B0912E
:100250006F0326B5A89B05C02F3F19F00196A11D7D
:10026000B11D3FBFBA2FA92F982F8827BC01CD0100
:10027000620F711D811D911D42E0660F771F881F5F
:10028000991F4A95D1F708958F929F92AF92BF928E
:10029000CF92DF92EF92FF924B015C010E941F010F
:1002A0006B017C010E941F016C197D098E099F0959
:1002B000683E734081059105A8F321E0821A9108F8
:1002C000A108B10888EEC80E83E0D81EE11CF11C1D
:1002D00081149104A104B10429F7FF90EF90DF90FD
:1002E000CF90BF90AF909F908F9008952FB7F894C4
:1002F000609168037091690380916A0390916B0328
:100300002FBF089508950895AF92BF92CF92DF92C4
:10031000EF92FF920F931F93CF93DF936C017B01BA
:100320008B01040F151FEB015E01AE18BF08C0174B
:10033000D10759F06991D601ED91FC910190F081BE
:10034000E02DC6010995892B79F7C501DF91CF9181
:100350001F910F91FF90EF90DF90CF90BF90AF90E3
:100360000895FC01538D448D252F30E0842F90E0BB
:10037000821B930B541710F0CF96089501970895A0
:10038000FC01918D828D981761F0A28DAE0FBF2F69
:10039000B11D5D968C91928D9F5F9F73928F90E0BF
:1003A00008958FEF9FEF0895FC01918D828D98172E
:1003B00031F0828DE80FF11D858D90E008958FEF6B
:1003C0009FEF0895FC01918D228D892F90E0805C34
:1003D0009F4F821B91098F739927089580E793E0BF
:1003E0000E94E20121E0892B09F420E0822F089588
:1003F00080E090E0892B29F00E94EE0181110C949D
:1004000000000895FC01A48DA80FB92FB11DA35AB7
:10041000BF4F2C91848D90E001968F739927848F24
:10042000A689B7892C93A089B1898C918370806447
:100430008C93938D848D981306C00288F389E02DE8
:1004400080818F7D80830895EF92FF920F931F9399
:10045000CF93DF93EC0181E0888F9B8D8C8D981377
:100460001AC0E889F989808185FF15C09FB7F89483
:10047000EE89FF896083E889F989808183708064CF
:1004800080839FBF81E090E0DF91CF911F910F911A
:10049000FF90EF900895F62E0B8D10E00F5F1F4F29
:1004A0000F731127E02E8C8D8E110CC00FB607FC38
:1004B000FACFE889F989808185FFF5CFCE010E94C6
:1004C0000202F1CFEB8DEC0FFD2FF11DE35AFF4F30
:1004D000F0829FB7F8940B8FEA89FB898081806254
:1004E000CFCFCF93DF93EC01888D8823B9F0AA8911
:1004F000BB89E889F9898C9185FD03C0808186FDDF
:100500000DC00FB607FCF7CF8C9185FFF2CF80812D
:1005100085FFEDCFCE010E940202E9CFDF91CF919E
:10052000089520919802260F3327331F2132310579
:10053000ECF42091BC02FC0190E080E0243069F0F2
:1005400082E00895A09198022191AC0148585D4F36
:10055000A40FB52FB11D2C930196861798F38091A7
:100560009802680F6093980280E0089581E00895F2
:100570001092BC0281E08093BE021092BD0261E045
:1005800082E10E94C00061E083E10E94C000E9EBCB
:10059000F0E080818E7F808380818D7F808388E4FE
:1005A0008093B80085E48093BC000895CF93DF93D7
:1005B00091E0909377028823B9F0C091B800D09170
:1005C000BA008091BC008A7B8093BC0060E082E12D
:1005D0000E94C00060E083E10E94C0000E94B80257
:1005E000D093BA00C093B800DF91CF9108950895D9
:1005F000E091E9028091E802E81730F4F0E0EE5A69
:10060000FD4F808190E008958FEF9FEF08959091C6
:10061000E9028091E8022FEF3FEF981748F4E92FA5
:10062000F0E0EE5AFD4F208130E09F5F9093E902A9
:10063000C90108958091E8029091E902891B990B04
:100640000895CF92DF92EF92FF920F931F93CF9373
:10065000DF937C01CB018A0120915102222389F092
:10066000EB016B01C40ED51ECC15DD0569F0699157
:10067000D701ED91FC910190F081E02DC701099522
:10068000F3CF642F0E949102C801DF91CF911F9197
:100690000F91FF90EF90DF90CF900895CF93DF936D
:1006A0001F92CDB7DEB76983209151022223F9F062
:1006B0002091E602203258F021E030E0FC01338343
:1006C000228390E080E00F90DF91CF910895809198
:1006D000E702E82FF0E0EF5CFD4F998190838F5F98
:1006E0008093E7028093E60281E090E0ECCF61E046
:1006F000CE0101960E949102F7CFCF92DF92EF9246
:10070000FF920F931F93CF93DF93FC01C48121E0ED
:1007100020935102C09330021092E7021092E60239
:100720008485682B8DE094E00E944E03D091E60210
:10073000D13208F092C00E941F016B017C018091B0
:10074000BC02811165C082E08093BC0281E080938D
:10075000BE028FEF8093BB021092E002D093DF02C3
:10076000A1E3B2E0EFEBF2E080E0D81385C0109295
:10077000E1028091E102CC0FC82BC093E10280918D
:10078000BD02813009F07CC01092BD020E941F01A1
:100790006B017C018091E1028093BB008091730228
:1007A00090917402A0917502B0917602892B8A2BE8
:1007B0008B2B99F00E941F0100917302109174021B
:1007C00020917502309176026C197D098E099F097E
:1007D0000617170728073907E0F18091BC0083FD51
:1007E000D9CF85EC8093BC000E941F016B017C0176
:1007F0008091BC02823009F445C08091BB028F3FDA
:1008000061F18091BB02803241F18091BB0225C031
:100810008091730290917402A0917502B09176025A
:10082000892B8A2B8B2B09F48ACF0E941F01009100
:1008300073021091740220917502309176026C1946
:100840007D098E099F09061717072807390708F041
:1008500076CF809172020E94D6021092E702109227
:10086000E60210925102DF91CF911F910F91FF90FC
:10087000EF90DF90CF9008959D9191938F5F75CF0A
:1008800085EEB0CF8091730290917402A0917502B1
:10089000B0917602892B8A2B8B2B09F4A9CF0E9469
:1008A0001F01009173021091740220917502309122
:1008B00076026C197D098E099F090617170728070C
:1008C000390708F095CFC5CF089590E080E00895EE
:1008D0000F931F93CF938C01C62F0E947D036C2F23
:1008E0006460C8010E947D036C2F6B7FC8010E9469
:1008F0007D0383EC90E00197F1F7CF911F910F9169
:1009000008950F931F93CF93DF938C01D62FC42F9D
:10091000607F642B0E94680480E1D89FB00111249D
:100920006C2BC801DF91CF911F910F910C9468043B
:10093000CF93DF93CDB7DEB728970FB6F894DEBF1D
:100940000FBECDBF98E0E4E0F1E0DE01119601902A
:100950000D929A95E1F790912104981708F48FEF82
:1009600090E0880F991F21E030E02C0F3D1F820F8F
:10097000931FFC016081606840E089E194E0289663
:100980000FB6F894DEBF0FBECDBFDF91CF910C94B0
:10099000810440E061E089E194E00E9481048BE3FE
:1009A0009FE10197F1F780912204882319F080E0FC
:1009B0000C949804089541E00E94810481E090E045
:1009C0000895FB0101900020E9F73197AF01461B24
:1009D000570BDC01ED91FC910280F381E02D09942D
:1009E0008F929F92AF92BF920F931F93CF93DF93FB
:1009F000CDB7DEB7A1970FB6F894DEBF0FBECDBF5F
:100A000019A2423008F44AE08E010F5D1F4F842E78
:100A1000912CB12CA12CA50194010E94C60FE62FA8
:100A2000B901CA01EA3004F5E05DD801EE938D0109
:100A3000232B242B252B79F790E080E0109729F0C9
:100A4000BD0180E793E00E94E104A1960FB6F894FF
:100A5000DEBF0FBECDBFDF91CF911F910F91BF9031
:100A6000AF909F908F900895E95CDFCFCF93DF9395
:100A7000BC0180E793E00E94E104EC016CE371E0CB
:100A800080E793E00E94E1048C0F9D1FDF91CF91DE
:100A900008958F929F92AF92BF92CF92DF92EF9282
:100AA000FF920F931F93CF93DF93EC014B01FB0158
:100AB000E255FF4F8491FB01E656FF4F0491FB0185
:100AC000EA57FF4F1491112309F475C081110E9458
:100AD0009700E12FF0E0EE0FFF1FE859FF4FA591BF
:100AE000B491EC910E2331E020E009F430E0832F43
:100AF000922F282F21702A832B81222309F45EC094
:100B0000892BD1F48FE391E00E9436052FE0821605
:100B1000910419F481E0809364030E9476018B01B3
:100B20009C016C831D838E833F83188619861A86E9
:100B30001B8681E0888319828881882369F10E945D
:100B400076019B01AC0160E070E080E090E0AC8059
:100B5000BD80CE80DF80E884F9840A851B850E94F1
:100B6000E80FA2E30E94F10FB9F0B0F029E082167D
:100B7000910409F091C08091FF02811183C080919E
:100B8000020190910301883E23E092072CF4019624
:100B900090930301809302018A818B83DF91CF912F
:100BA0001F910F91FF90EF90DF90CF90BF90AF908B
:100BB0009F908F90089590E080E09BCF892B09F45F
:100BC000BBCF85E491E00E9436058FE08816910442
:100BD00011F4109264030E9476015B016C016C8732
:100BE000BD868E87DF86188A198A1A8A1B8A188220
:100BF0009B01AC0160E070E080E090E0AC80BD80E3
:100C0000CE80DF80E884F9840A851B850E94E80F86
:100C1000A2E30E94F10F09F008F4BECF8DE491E049
:100C20000E94360528E08216910489F481E08093C1
:100C3000F6029091FE02911148C09091FF02992313
:100C400019F01092FF0278CF8093FF0275CF87E0F2
:100C50008816910409F070CF8091FE02811106C0C0
:100C600081E08093FE021092660366CF8091650357
:100C7000811104C081E0809366035ECF81E08093A0
:100C8000FD025ACF8091000190910101019690934D
:100C900001018093000180CF8AE08816910409F059
:100CA0007BCF8091FF0281110AC080910201909157
:100CB0000301823091050CF46FCF019769CF8091C9
:100CC0000001909101010197E2CF1092FE02109273
:100CD00066031092650330CF4F925F926F927F92BE
:100CE0008F929F92AF92BF92CF92DF92EF92FF923C
:100CF0000F931F93CF936B017C01742EAC019B016A
:100D00000E94C10F6BE571E0811126C046015701B9
:100D1000E894B7F82FEF3FEF4FE75FE7C501B40165
:100D20000E94C10F81110CC02FEF3FEF4FE75FE72B
:100D3000C501B4010E94F00D6FE571E0181664F072
:100D40002FEF3FEF4FE75FE4C701B6010E944F0F5F
:100D50001816ACF463E671E080E793E0CF911F9141
:100D60000F91FF90EF90DF90CF90BF90AF909F904A
:100D70008F907F906F905F904F900C94E1042FEFD5
:100D80003FEF4FE75FECC701B6010E94F00D87FD12
:100D9000E1CF20E030E0A901C701B6010E94F00DCB
:100DA00010E000E087FF0AC06DE280E793E00E9458
:100DB00024028C01F7FAF094F7F8F094C0E060E0B8
:100DC00070E080E09FE37C1641F020E030E040E2FC
:100DD00051E40E94F50DCF5FF6CFA70196010E9466
:100DE000840D2B013C010E946E0E4B015C014AE018
:100DF0000E94F0047C01E00EF11ECC23C1F1C5017C
:100E0000B4010E949D0E9B01AC01C301B2010E947E
:100E1000830D4B015C016EE280E793E00E942402A7
:100E2000E80EF91EC15018F120E030E040E251E434
:100E3000C501B4010E94540F2B013C010E946E0EAB
:100E40004B01B12CA12C4AE0C501B4010E94F00471
:100E5000E80EF91EC501B4010E949D0E9B01AC0174
:100E6000C301B2010E94830D4B015C01DBCFC701BE
:100E7000CF911F910F91FF90EF90DF90CF90BF9097
:100E8000AF909F908F907F906F905F904F9008955C
:100E90000C94E10485ED8093BC00809173029091E5
:100EA0007402A0917502B09176020796A11DB11D42
:100EB00023E0B695A795979587952A95D1F7209128
:100EC000BC0024FD03C01092BC020895409173023F
:100ED000509174026091750270917602452B462BF9
:100EE000472B69F30097A105B10541F02AE22A9545
:100EF000F1F700C00197A109B109E1CF8091720219
:100F00000C94D6021F920F920FB60F9211242F93BA
:100F10003F938F939F93AF93BF938091680390917A
:100F20006903A0916A03B0916B033091670323E0DA
:100F3000230F2D3758F50196A11DB11D209367038E
:100F40008093680390936903A0936A03B0936B0343
:100F500080916C0390916D03A0916E03B0916F032B
:100F60000196A11DB11D80936C0390936D03A09316
:100F70006E03B0936F03BF91AF919F918F913F919B
:100F80002F910F900FBE0F901F90189526E8230FFA
:100F90000296A11DB11DD2CF1F920F920FB60F92D4
:100FA00011242F933F934F935F936F937F938F936E
:100FB0009F93AF93BF93EF93FF9380E793E00E94DB
:100FC0000202FF91EF91BF91AF919F918F917F911D
:100FD0006F915F914F913F912F910F900FBE0F90A6
:100FE0001F9018951F920F920FB60F9211242F93F6
:100FF0008F939F93EF93FF93E0918003F091810390
:101000008081E0918603F091870382FD1BC090816F
:10101000809189038F5F8F7320918A03821741F03B
:10102000E0918903F0E0E059FC4F958F80938903AC
:10103000FF91EF919F918F912F910F900FBE0F9085
:101040001F9018958081F4CF1F920F920FB60F92C8
:1010500011242F933F934F935F936F937F938F93BD
:101060009F93AF93BF93EF93FF938091B900887FD5
:10107000803609F44AC0F0F5883209F4A7C018F5A3
:10108000803109F49BC0B8F4882309F4F9C0883092
:1010900009F494C0FF91EF91BF91AF919F918F910F
:1010A0007F916F915F914F913F912F910F900FBE64
:1010B0000F901F901895883109F488C0803251F73D
:1010C0008093BB0214C0803409F49DC040F4803387
:1010D000B9F38833F9F68093BB0285ECB0C0803554
:1010E00009F485C0883509F496C0883499F60E94C1
:1010F0004A07D0CF883909F48CC038F5883729F0F1
:1011000050F4883611F0803729F683E08093BC02D2
:101110001092BA0257C0883809F47BC0803919F0A0
:10112000803809F0B7CF8091BA02803208F071C0E0
:10113000E091BA0281E08E0F8093BA028091BB00E9
:10114000F0E0E656FD4F80833DC0803B39F0E0F48F
:10115000803A09F479C0883A09F09CCF84E0809302
:10116000BC021092990210929802E091E402F09170
:10117000E50209958091980281110FC081E080936A
:1011800098021092780209C0803C09F4A6CF883CEE
:1011900009F4A3CF883B09F07DCFE091990281E06B
:1011A0008E0F80939902F0E0E858FD4F8081809384
:1011B000BB00909199028091980229C08091E10230
:1011C0008093BB0085EC8093BC0064CF9091E002DB
:1011D0008091DF02981758F5E091E00281E08E0FD0
:1011E0008093E002F0E0E154FD4F8081E9CFE0918F
:1011F000E00281E08E0F8093E0028091BB00F0E07E
:10120000E154FD4F80839091E0028091DF029817B6
:10121000C8F285E8D8CFE091E00281E08E0F80939C
:10122000E0028091BB00F0E0E154FD4F80838091AB
:10123000BE0281115CCF81E08093BD0284EA80937D
:10124000BC001092BC0226CF85EC8093BC001092AB
:10125000BC028091BA02803230F4E091BA02F0E030
:10126000E656FD4F10826091BA0270E0E091E20212
:10127000F091E3028AE992E009951092BA020ACF4E
:101280001092BB0234CFE0E7F3E01382128288EEC3
:1012900093E0A0E0B0E084839583A683B78320E148
:1012A00031E03183208325EC30E03587248724EC3E
:1012B00030E03787268720EC30E0318B208B21EC23
:1012C00030E0338B228B22EC30E0358B248B26EC04
:1012D00030E0378B268B118E128E138E148EEDE03C
:1012E000F4E01382128284839583A683B78382E21B
:1012F00091E091838083E9E1F4E01382128284E338
:1013000091E091838083118687E2848380E18287E4
:1013100082E0838714860895CF93DF93CDB7DEB73D
:10132000A0970FB6F894DEBF0FBECDBF789484B5FA
:10133000826084BD84B5816084BD85B5826085BDD1
:1013400085B5816085BD80916E00816080936E005F
:101350001092810080918100826080938100809151
:101360008100816080938100809180008160809302
:1013700080008091B10084608093B1008091B000C2
:1013800081608093B00080917A00846080937A00BD
:1013900080917A00826080937A0080917A008160E7
:1013A00080937A0080917A00806880937A0010920E
:1013B000C100E0918003F091810382E08083E0919D
:1013C0007C03F0917D031082E0917E03F0917F0316
:1013D0008FEC808310928803E0918403F091850361
:1013E00086E08083E0918203F091830380818061B5
:1013F0008083E0918203F091830380818860808301
:10140000E0918203F0918303808180688083E09182
:101410008203F091830380818F7D808361E085E08A
:101420000E94EE0061E086E00E94EE0061E082E052
:101430000E94EE0061E083E00E94EE0061E084E043
:101440000E94EE0061E082E00E94C00061E083E063
:101450000E94C00061E084E00E94C00061E08BE077
:101460000E94EE0061E08CE00E94EE0060E087E008
:101470000E94EE0060E088E00E94EE0060E089E0FB
:101480000E94EE0060E08AE00E94EE0060E08FE0E3
:101490000E94EE001092E9021092E8021092E70218
:1014A0001092E6020E94B80282E891E09093E50271
:1014B0008093E40283E891E09093E3028093E20258
:1014C00010921E0480912404823018F098E09093CA
:1014D0001E048093210462E370E080E090E00E94AB
:1014E00044016091250489E194E00E947D0368EE47
:1014F00073E080E090E00E94440160E389E194E0C1
:101500000E9468040BE416E4C8010197F1F760E358
:1015100089E194E00E946804C8010197F1F760E353
:1015200089E194E00E94680483E592E00197F1F775
:1015300060E289E194E00E94680460911E046062A8
:1015400040E089E194E00E94810484E080931F04DC
:1015500040E06CE089E194E00E9481040E94C904AB
:1015600082E08093200440E066E089E194E00E94FC
:10157000810440E062E089E194E00E9481048BE311
:101580009FE10197F1F788E08093250460E089E10D
:1015900094E00E947D0380E00E94980467E671E079
:1015A00089E194E00E94480781E080933E038093A4
:1015B0003F0380932A0380932B0380931603809329
:1015C0001703809302038093030380935203809355
:1015D00053039E012F5E3F4F4901CE0101963C010E
:1015E00091E8492E91E0592E80E1382E80916603D2
:1015F000882361F01092650380916403882309F4C5
:10160000C6C01092660381E0809365036FE070E0CE
:1016100080E593E00E94490567E070E08CE393E089
:101620000E94490568E070E088E293E00E94490565
:1016300069E070E084E193E00E9449056AE070E0AF
:1016400080E093E00E9449058091FE028111E5C08F
:1016500080910201909103012091FF022111BBC0F2
:101660009F938F93E0E7F1E0FF93EF939F928F9228
:101670000E940A1080E00E949804B40189E194E07D
:101680000E944807F401232D11922A95E9F78091D1
:1016900001018F93809100018F935F924F927F920F
:1016A0006F920E940A1081E00E949804B30189E1C0
:1016B00094E00E9448070FB6F894DEBF0FBECDBF7E
:1016C0008091FD02882309F455C061E086E00E9404
:1016D000C000009100011091010160910201709120
:1016E0000301072E000C880B990B0E949F0E6B01C3
:1016F0007C01B801012E000C880B990B0E949F0EF3
:101700009B01AC01C701B6010E94F50D6093F9027F
:101710007093FA028093FB029093FC021093F802FC
:101720000093F70242E00E946C066CE371E080E7F0
:1017300093E00E94E1040E94C90468E070E088E23E
:1017400093E00E9449058091F602882309F49EC027
:1017500060E08BE00E94C00060E08CE00E94C0006E
:101760001092F602109265031092FD021092FE0292
:101770001092FF0280E090E0892B09F437CF0E949D
:10178000EE01882309F430CF0E9400002DCF60E0E5
:1017900086E00E94C00000E81CE06FE070E080E599
:1017A00093E00E94490580916403811125CF61E097
:1017B00085E00E94C0008EE591E00E948C0060E010
:1017C00085E00E94C0008EE591E00E948C000150EF
:1017D000110919F711CF9F938F93E2E9F1E0FF937D
:1017E000EF939F928F920E940A1080E00E949804CB
:1017F000B40189E194E00E944807F401232D11927D
:101800002A95E9F7809101018F93809100018F93D0
:1018100083EA91E09F938F9342CF8091650381117A
:1018200020C064EB71E0C4010E94031080E00E94BC
:101830009804B40189E194E00E944807F401232D43
:1018400011922A95E9F766EC71E0C3010E9403103A
:1018500081E00E949804B30189E194E00E94480766
:101860002FCF68ED71E0C4010E94031080E00E9458
:101870009804B40189E194E00E944807F401232D03
:1018800011922A95E9F769EE71E0DFCF8091F702B6
:101890009091F8022091000130910101281B390B31
:1018A0003093F5022093F4022091F302222309F4ED
:1018B00091C001979093F8028093F70269EF71E06D
:1018C00080E793E00E94480720E030E040EA52E4DD
:1018D0006091F9027091FA028091FB029091FC02F2
:1018E0000E94540F42E00E946C066CE371E080E7B6
:1018F00093E00E94E10420E030E040EA52E460918D
:10190000F9027091FA028091FB029091FC020E9410
:10191000540F0E94670E7B0177FF04C0EE24FF2462
:10192000E61AF70A10E000E0E016F106A1F068E020
:1019300070E088E293E00E9449058091F6028823D6
:10194000B1F11092F602109265031092FD0210920E
:10195000FE021092FF020E9476018B019C016093AF
:10196000EB021093EC028093ED023093EE021092A2
:10197000EF021092F0021092F1021092F202109215
:10198000F3028091F7029091F802892B09F0D5CEED
:1019900089E292E00E943605109265031092FD02E2
:1019A0001092FE021092FF020E94C904E3CE61E091
:1019B00085E00E94C0008CEB92E00E948C0060E009
:1019C00085E00E94C0008CEB92E00E948C000F5FCB
:1019D0001F4FAACF0E9476019B01AC0160E070E02E
:1019E00080E090E0A090EB02B090EC02C090ED029D
:1019F000D090EE02E090EF02F090F0020091F10240
:101A00001091F2020E94E80F273E33404105510534
:101A1000610571058105910509F008F4B2CF6DE00B
:101A200072E0C4010E94031080E00E949804B40197
:101A300089E194E00E944807F401232D11922A9530
:101A4000E9F7809101018F93809100018F935F925C
:101A50004F927F926F920E940A10809101018F93A2
:101A6000809100018F938091F5028F938091F40211
:101A70008F9388E192E09F938F937F926F920E9461
:101A80000A1081E00E949804B30189E194E00E9469
:101A900048078091EA028F5F8093EA020FB6F894BC
:101AA000DEBF0FBECDBF8130C9F461E08BE00E9484
:101AB000C0000E9476018B019C016093EB021093A1
:101AC000EC028093ED023093EE021092EF0210923E
:101AD000F0021092F1021092F20253CF823019F408
:101AE00061E08CE0E4CF833031F460E08BE00E9471
:101AF000C00060E0F6CF8430E1F61092EA0281E0A7
:101B00008093F302D6CF5058BB27AA270E949B0D83
:101B10000C94150F0E94070F38F00E940E0F20F052
:101B200039F49F3F19F426F40C94040F0EF4E09559
:101B3000E7FB0C94FE0EE92F0E94260F58F3BA170C
:101B4000620773078407950720F079F4A6F50C94D3
:101B5000480F0EF4E0950B2EBA2FA02D0B01B90102
:101B600090010C01CA01A0011124FF27591B99F013
:101B7000593F50F4503E68F11A16F040A22F232F1F
:101B8000342F4427585FF3CF469537952795A7956F
:101B9000F0405395C9F77EF41F16BA0B620B730B16
:101BA000840BBAF09150A1F0FF0FBB1F661F771F87
:101BB000881FC2F70EC0BA0F621F731F841F48F43C
:101BC000879577956795B795F7959E3F08F0B0CFC5
:101BD0009395880F08F09927EE0F979587950895AC
:101BE0000E94DA0E08F481E008950E94090E0C9418
:101BF000150F0E940E0F58F00E94070F40F029F4B5
:101C00005F3F29F00C94FE0E51110C94490F0C9477
:101C1000040F0E94260F68F39923B1F3552391F323
:101C2000951B550BBB27AA2762177307840738F04B
:101C30009F5F5F4F220F331F441FAA1FA9F335D0A8
:101C40000E2E3AF0E0E832D091505040E695001C5C
:101C5000CAF72BD0FE2F29D0660F771F881FBB1F16
:101C6000261737074807AB07B0E809F0BB0B802DF4
:101C7000BF01FF2793585F4F3AF09E3F510578F020
:101C80000C94FE0E0C94490F5F3FE4F3983ED4F39E
:101C9000869577956795B795F7959F5FC9F7880FF4
:101CA000911D9695879597F90895E1E0660F771F46
:101CB000881FBB1F621773078407BA0720F0621BD7
:101CC000730B840BBA0BEE1F88F7E09508950E9402
:101CD0006E0E6894B1110C94490F08950E942E0F56
:101CE00088F09F5798F0B92F9927B751B0F0E1F0DD
:101CF000660F771F881F991F1AF0BA95C9F714C08D
:101D0000B13091F00E94480FB1E008950C94480F53
:101D1000672F782F8827B85F39F0B93FCCF38695C5
:101D200077956795B395D9F73EF490958095709522
:101D300061957F4F8F4F9F4F0895E89409C097FB9F
:101D40003EF490958095709561957F4F8F4F9F4F92
:101D50009923A9F0F92F96E9BB279395F6958795D6
:101D600077956795B795F111F8CFFAF4BB0F11F499
:101D700060FF1BC06F5F7F4F8F4F9F4F16C0882340
:101D800011F096E911C0772321F09EE8872F762F76
:101D900005C0662371F096E8862F70E060E02AF0B7
:101DA0009A95660F771F881FDAF7880F96958795A3
:101DB00097F90895990F0008550FAA0BE0E8FEEF78
:101DC00016161706E807F907C0F012161306E407FF
:101DD000F50798F0621B730B840B950B39F40A26F8
:101DE00061F0232B242B252B21F408950A2609F4D6
:101DF000A140A6958FEF811D811D089597F99F67DA
:101E000080E870E060E008959FEF80EC0895002482
:101E10000A941616170618060906089500240A944F
:101E200012161306140605060895092E0394000CD5
:101E300011F4882352F0BB0F40F4BF2B11F460FF64
:101E400004C06F5F7F4F8F4F9F4F089557FD90588D
:101E5000440F551F59F05F3F71F04795880F97FB6E
:101E6000991F61F09F3F79F0879508951216130628
:101E70001406551FF2CF4695F1DF08C01616170657
:101E80001806991FF1CF869571056105089408958C
:101E9000E894BB2766277727CB0197F908950E941E
:101EA000DA0E08F48FEF08950E94670F0C94150F57
:101EB0000E94070F38F00E940E0F20F0952311F0BA
:101EC0000C94FE0E0C94040F11240C94490F0E94E4
:101ED000260F70F3959FC1F3950F50E0551F629F39
:101EE000F001729FBB27F00DB11D639FAA27F00D73
:101EF000B11DAA1F649F6627B00DA11D661F829F9A
:101F00002227B00DA11D621F739FB00DA11D621F7E
:101F1000839FA00D611D221F749F3327A00D611D9B
:101F2000231F849F600D211D822F762F6A2F11247D
:101F30009F5750409AF0F1F088234AF0EE0FFF1FB0
:101F4000BB1F661F771F881F91505040A9F79E3F07
:101F5000510580F00C94FE0E0C94490F5F3FE4F3A2
:101F6000983ED4F3869577956795B795F795E7955D
:101F70009F5FC1F7FE2B880F911D9695879597F966
:101F800008950E94DA0E880B990B0895A1E21A2E8B
:101F9000AA1BBB1BFD010DC0AA1FBB1FEE1FFF1F0D
:101FA000A217B307E407F50720F0A21BB30BE40B5D
:101FB000F50B661F771F881F991F1A9469F76095A4
:101FC0007095809590959B01AC01BD01CF0108955E
:101FD0002A193B094C095D096E097F09800B910B99
:101FE00008950024A7FD00942A17300540055005E8
:101FF00060057005800590050895EE0FFF1F0590A0
:10200000F491E02D0994FB01DC0101900D92002078
:10201000E1F70895AEE0B0E0E0E1F0E10C94B91230
:102020000D891E8986E08C831A8309838FEF9FE7D1
:102030009E838D83AE01475E5F4F6F89788DCE01A1
:1020400001960E942D102F813885020F131FF80171
:1020500010822E96E4E00C94D512ABE0B0E0E3E3FE
:10206000F0E10C94AB127C013B018A01FC01178268
:102070001682838181FFC8C1CE0101965C01F70100
:102080009381F30193FD859193FF81913F01882313
:1020900009F453C1853239F493FD859193FF819101
:1020A0003F01853229F4B70190E00E941D12E7CF6D
:1020B000912C212C312CFFE1F31538F08B3211F1EA
:1020C00090F4803209F1833229F137FC3CC020EDD5
:1020D000280F2A3050F536FE20C08AE0989E200D49
:1020E0001124922E06C08D3291F0803371F76894DE
:1020F00030F8F30193FD859193FF81913F018111A8
:10210000DACF21C0689431F8689432F8F2CF68943D
:1021100033F8EFCF689434F8ECCFEAE02E9E200D30
:102120001124222E689435F8E4CF8E3229F436FC3F
:1021300004C1689436F8DDCF8C3619F4689437F80A
:10214000D8CF8836B1F2982F9F7D95549330E0F028
:102150008336A1F18337C1F1833509F063C02801CB
:10216000F2E04F0E511CF801C080D180692D70E063
:1021700036FC02C06FEF7FEFC6010E9407124C01D0
:10218000689437F882010AC00C5F1F4FFFE3F983A0
:1021900088248394912C6501E89437F833FE2DC090
:1021A000522C8114910471F5552009F468CFB701C0
:1021B00080E290E00E941D125A94F6CFF8018081CF
:1021C00089830E5F1F4FE4CF2801F2E04F0E511CB0
:1021D000F801C080D180692D70E036FC02C06FEF3D
:1021E0007FEFC6010E9412124C018201D5CFB701C8
:1021F00080E290E00E941D122A942814190409F02C
:10220000B0F7CECFF60137FC859137FE81916F0193
:10221000B70190E00E941D1251105A94F1E08F1AFC
:102220009108BFCF843619F0893609F077C0F801DC
:1022300037FE6BC060817181828193810C5F1F4F7B
:10224000F32DFF763F2E97FF09C0909580957095EE
:1022500061957F4F8F4F9F4F689437F82AE030E0A9
:10226000A5010E944D12C82ECA188C2C432C36FE94
:102270000CC0E89440F8C91440F434FE05C032FCA8
:1022800003C0F32DFE7E4F2E892C44FE95C0FE0127
:10229000EC0DF11D8081803309F087C0242D297E4B
:1022A000422E842D8870582E43FC95C040FE8FC06E
:1022B0009C2C821418F42C0C922C981844FE91C07B
:1022C000B70180E390E00E941D1242FE09C088E73A
:1022D00090E041FE02C088E590E0B7010E941D1227
:1022E000C91408F48AC0CA94D12C9FEFC91AD90A1C
:1022F000CA0CDB1CF60182916F01B70190E00E94CD
:102300001D12AC14BD04B1F74FCF60817181072E4F
:10231000000C880B990B0E5F1F4F92CFD32CE894C3
:10232000D4F82AE030E0853739F1232D297FD22EE9
:102330008F3601F148F48835A9F0F701868197813D
:102340002B96E2E10C94C712803749F08837A9F741
:10235000D4FE02C06894D2F820E130E00DC0689449
:10236000D4F8F6CF34FE03C0822F8660D82E20E149
:1023700032E002C028E030E0F801D7FE0FC06081F3
:102380007181828193810C5F1F4FA5010E944D12C4
:10239000C82ECA183D2CE89437F867CF6081718148
:1023A00090E080E00E5F1F4FF0CF42FC02C08394AC
:1023B00078CF8394839475CF842D867809F471CF78
:1023C000F6CFB70180E290E00E941D128394821440
:1023D000C0F3512C73CF522C5818821408F46ECFCE
:1023E000F8CF842D867809F47BCF8BE241FE80E222
:1023F00047FC8DE2B70190E071CFB70180E390E038
:102400000E941D129A946CCF8FEF9FEF99CFFC0121
:102410000590615070400110D8F7809590958E0F0F
:102420009F1F0895FC016150704001900110D8F782
:10243000809590958E0F9F1F08950F931F93CF93B4
:10244000DF93182F092FEB018B8181FD09C01FEF4E
:102450000FEF812F902FDF91CF911F910F91089552
:1024600082FF14C02E813F818C819D8128173907FE
:102470003CF4E881F981CF01019699838883108328
:102480008E819F8101969F838E83E3CFE885F985B6
:10249000812F0995892BA1F3DACFFA01AA272830D9
:1024A00051F1203181F1E8946F936E7F6E5F7F4F21
:1024B0008F4F9F4FAF4FB1E03ED0B4E03CD0670F9D
:1024C000781F891F9A1FA11D680F791F8A1F911DF0
:1024D000A11D6A0F711D811D911DA11D20D009F440
:1024E00068943F912AE0269F11243019305D319382
:1024F000DEF6CF010895462F4770405D4193B3E06B
:102500000FD0C9F7F6CF462F4F70405D4A3318F011
:10251000495D31FD4052419302D0A9F7EACFB4E0C2
:10252000A6959795879577956795BA95C9F700977A
:102530006105710508959B01AC010A2E069457951B
:10254000479537952795BA95C9F7620F731F841F72
:10255000951FA01D08952F923F924F925F926F9208
:102560007F928F929F92AF92BF92CF92DF92EF9223
:10257000FF920F931F93CF93DF93CDB7DEB7CA1BA4
:10258000DB0B0FB6F894DEBF0FBECDBF09942A88CF
:10259000398848885F846E847D848C849B84AA8477
:1025A000B984C884DF80EE80FD800C811B81AA8104
:1025B000B981CE0FD11D0FB6F894DEBF0FBECDBFCF
:1025C000ED010895F894FFCF5A001E00000040006E
:1025D000140054000000000024028401B1017102C3
:1025E000E201C001D401000000004E032103650494
:1025F000F7021A030703F80200000000DB0484015D
:10260000650464040D0A0050726573730052656CB2
:1026100065617365004465746563742062757474E4
:102620006F6E006E616E00696E66006F7666007890
:10263000696E206368616F0044697374616E6365DD
:102640003A20203E25642020004E4F503A20202082
:102650002020202020256420200044697374616EAE
:1026600063653A20202025642020004E4F503A20F8
:102670002020202020203E2564202000205354418B
:102680005254202020202053544F50202000544FDB
:1026900020484F4D45202020204241434B20200020
:1026A0002053544152542020202053544F50202076
:1026B000002052554E2020202020204241434B2014
:1026C0000044697374616E63654F66506963747525
:1026D0007265203A0052756E6E696E672E2E2E005E
:1026E0004E4F503A2025642020202F2564202020A2
:0826F00000427265616B0000FD
:107800000C94343C0C94513C0C94513C0C94513CE1
:107810000C94513C0C94513C0C94513C0C94513CB4
:107820000C94513C0C94513C0C94513C0C94513CA4
:107830000C94513C0C94513C0C94513C0C94513C94
:107840000C94513C0C94513C0C94513C0C94513C84
:107850000C94513C0C94513C0C94513C0C94513C74
:107860000C94513C0C94513C11241FBECFEFD8E036
:10787000DEBFCDBF11E0A0E0B1E0ECE9FFE702C060
:1078800005900D92A230B107D9F712E0A2E0B1E065
:1078900001C01D92AD30B107E1F70E942D3D0C945F
:1078A000CC3F0C94003C982F959595959595959582
:1078B000905D8F708A307CF0282F295A8091C0000B
:1078C00085FFFCCF9093C6008091C00085FFFCCF60
:1078D0002093C6000895282F205DF0CF982F809127
:1078E000C00085FFFCCF9093C6000895EF92FF92F1
:1078F0000F931F93EE24FF2487018091C00087FD22
:1079000017C00894E11CF11C011D111D81E4E8164B
:1079100082E4F8068FE0080780E0180770F3E09132
:107920000401F091050109958091C00087FFE9CF1E
:107930008091C6001F910F91FF90EF9008950E94D3
:10794000763C982F8091C00085FFFCCF9093C600B5
:1079500091362CF490330CF09053892F089597555D
:10796000892F08951F930E949F3C182F0E949F3CCF
:107970001295107F810F1F9108951F93182F882350
:1079800021F00E94763C1150E1F71F9108951F935A
:10799000182F0E94763C803249F0809103018F5F5E
:1079A000809303018530C1F01F9108958091C0003C
:1079B00085FFFCCF84E18093C6008091C00085FFE5
:1079C000FCCF1093C6008091C00085FFFCCF80E102
:1079D0008093C6001F910895E0910401F091050184
:1079E00009951F9108950E94763C803241F0809164
:1079F00003018F5F80930301853081F008958091AA
:107A0000C00085FFFCCF84E18093C6008091C00058
:107A100085FFFCCF80E18093C6000895E0910401CA
:107A2000F09105010995089540E951E08823A1F0FE
:107A30002D9A28EE33E0FA013197F1F721503040CA
:107A4000D1F72D9828EE33E0FA013197F1F7215064
:107A50003040D1F7815061F708953F924F925F9285
:107A60006F927F928F929F92AF92BF92CF92DF924E
:107A7000EF92FF920F931F93CF93DF93000080E16B
:107A80008093C4001092C50088E18093C10086E015
:107A90008093C2005098589A259A81E00E94143D24
:107AA00024E1F22E9EE1E92E85E9D82E0FE0C02ECA
:107AB00010E1B12EAA24A394B1E49B2EA6E58A2E50
:107AC000F2E57F2EE0E26E2E79E4572E63E5462E36
:107AD00050E5352E0E94763C8033B1F18133B9F107
:107AE000803409F46FC0813409F476C0823409F41B
:107AF00085C0853409F488C0803531F1823521F1A3
:107B0000813511F1853509F485C0863509F48DC0BC
:107B1000843609F496C0843709F403C1853709F423
:107B200072C1863709F466C0809103018F5F80932C
:107B30000301853079F6E0910401F0910501099582
:107B40000E94763C803351F60E94F33CC3CF0E94E2
:107B5000763C803249F78091C00085FFFCCFF092DF
:107B6000C6008091C00085FFFCCF9092C600809136
:107B7000C00085FFFCCF8092C6008091C00085FFC9
:107B8000FCCF7092C6008091C00085FFFCCF609250
:107B9000C6008091C00085FFFCCF5092C600809146
:107BA000C00085FFFCCF4092C6008091C00085FFD9
:107BB000FCCF3092C6008091C00085FFFCCFB09210
:107BC000C60088CF0E94763C863808F4BDCF0E945C
:107BD000763C0E94F33C7ECF0E94763C803809F4CC
:107BE0009CC0813809F40BC1823809F43CC1883942
:107BF00009F48FC080E00E94C73C6CCF84E10E94F2
:107C0000BD3C0E94F33C66CF85E00E94BD3C0E94D3
:107C1000F33C60CF0E94763C809306010E94763C44
:107C2000809307010E94F33C55CF0E94763C80333D
:107C300009F41DC183E00E94BD3C80E00E94C73C66
:107C400049CF0E94763C809309020E94763C809343
:107C5000080280910C028E7F80930C020E94763C79
:107C6000853409F415C18091080290910902892B8D
:107C700089F000E010E00E94763CF801E85FFE4FDA
:107C800080830F5F1F4F80910802909109020817AF
:107C9000190788F30E94763C803209F045CF809125
:107CA0000C0280FF01C16091060170910701660F0F
:107CB000771F7093070160930601A0910802B091AD
:107CC00009021097C9F0E8E0F1E09B01AD014E0F09
:107CD0005F1FF999FECF32BD21BD819180BDFA9A17
:107CE000F99A2F5F3F4FE417F50799F76A0F7B1F4B
:107CF00070930701609306018091C00085FFFCCF5F
:107D0000F092C6008091C00085FFFCCFB092C60003
:107D1000E1CE83E00E94C73CDDCE82E00E94C73CFA
:107D2000D9CE0E94763C809309020E94763C8093D3
:107D300008028091060190910701880F991F909386
:107D40000701809306010E94763C853409F4A6C0A1
:107D500080910C028E7F80930C020E94763C8032D0
:107D600009F0B8CE8091C00085FFFCCFF092C6002C
:107D7000609108027091090261157105B9F140E046
:107D800050E080910C02A82FA170B82FB27011C0E2
:107D9000BB2309F45CC0E0910601F0910701319624
:107DA000F0930701E09306014F5F5F4F46175707B7
:107DB000E8F4AA2369F3F999FECF209106013091E6
:107DC000070132BD21BDF89A90B58091C00085FFB2
:107DD000FCCF9093C6002F5F3F4F30930701209355
:107DE00006014F5F5F4F4617570718F38091C00099
:107DF00085FDE5CE8091C00085FFF8CFE0CE81E023
:107E00000E94C73C67CE0E94763C803209F08CCE3F
:107E10008091C00085FFFCCFF092C6008091C00029
:107E200085FFFCCFE092C6008091C00085FFFCCFAB
:107E3000D092C6008091C00085FFFCCFC092C600E2
:107E40008091C00085FFFCCFB092C60043CEE09188
:107E50000601F091070194918091C00085FFFCCF4D
:107E60009093C6009CCF80E10E94C73C33CE0E9415
:107E7000763C0E94763C182F0E94763C112309F430
:107E800083C0113009F484C08FE00E94C73C22CE29
:107E900080910C02816080930C02E5CE80910C02EF
:107EA000816080930C0259CF809107018823880F4D
:107EB000880B8A2180930B02809106019091070123
:107EC000880F991F90930701809306018091080203
:107ED00080FF09C080910802909109020196909359
:107EE000090280930802F894F999FECF1127E091D6
:107EF0000601F0910701C8E0D1E08091080290915D
:107F00000902103091F40091570001700130D9F34B
:107F100003E000935700E89500915700017001308D
:107F2000D9F301E100935700E89509901990009169
:107F3000570001700130D9F301E000935700E89534
:107F40001395103498F011270091570001700130FB
:107F5000D9F305E000935700E895009157000170B0
:107F60000130D9F301E100935700E895329602976A
:107F700009F0C7CF103011F00296E5CF112480919F
:107F8000C00085FFB9CEBCCE8EE10E94C73CA2CD19
:0E7F900085E90E94C73C9ECDF894FFCF80008B
:00000001FF
